:1002CE0008223844422121424438081A7FBFDFEF0A
:1002DE00F7FBFDFE120830383F3E796E3F3E0000C0
:0802EE00000000000000000008
:0403EB007F017E0010
:0B03EF00EF1FAC0670011E4C70F622E0
:0903FA00007F027EC7DEFEDFFC7D
:0104030022D6
:04039600AD07AC06FD
:10039A00E4FBFAC3EB9DEA9C500A1203FA0BBB007A
:0403AA00010A80EFD5
:0103AE00222C
:0202A500AD07A3
:1002A700E4FBEDC4131313540124FF92B4ED25E0CE
:1002B700FDC2B61203EBD2B61203EB0BBB08E3C2C7
:0602C700CD1203EBD2CDC5
:0102CD00220E
:10023B00E4F5481203C57B417D017F0112040E20BA
:10024B00B1137F147E0012039630B1FD7F147E0034
:10025B001203960547E5475401F54870051202F75E
:07026B0080DD12012380D8A1
:1002F700E4FA741A2AF8E6F58074222AF8E6FF125F
:1003070002A57F647E001203EFE4FF1202A50ABA7A
:0203170008E0FC
:0103190022C1
:10012300E4FDEDB40800504D900132F82828730225
:10013300014A02014E02015202015602015A020112
:100143006202016A020172D2A4800ED2A48012D28A
:10015300A48016D2A4801AC2A4D2A3D2A28016C2AB
:10016300A4D2A3C2A2800EC2A4C2A3D2A28006C2FA
:10017300A4C2A3C2A274082DF8E6F5807F647E00B2
:0C0183001203EFE4F5800DED64087096A7
:01018F00224D
:0603D900C2C18F80D2B703
:0B03DF000000007F0B7EBEDEFEDFFC96
:0103EA0022F0
:0A040400C2C21203D9C2B70203DF1F
:10033D00CFCDCFCECCCE1200427C007D0A12004232
:04034D00ED2430FF6C
:0A035100D2C21203D9C2B70203DFC3
:1003AF00AE07BE0104ED148006BE0209ED243F44E2
:0603BF0080FF120404227D
:1003C5007F381204047F0C1204047F061204047F94
:0403D5000102040419
:0A040E00AC031203AFAF0402035168
:06031A008B448A45894670
:100320001203AFE4FDAB44AA45A9468D8275830054
:0C033000120003FF60061203510D80E96B
:01033C00229E
:0C0272007F0AEA24FFFDE434FFFC7E005C
:08027E008E408F418C428D433C
:100286007F017E00E4FBEBC39543E5426480F8748E
:0E0296008098500AAC40AD411200300B80E859
:0102A4002237
:040379008A338B3404
:10037D001203AFAA35EAD39400400D120272AC33CA
:08038D00AD3412033D1A80EDAE
:010395002245
:100190001203AFC3EA64809480400B7F2B1203519B
:1001A0008A2F8B30800E7F2D120351C3E49BF530D4
:1001B000E49AF52FAA2EEAD39400400D120272ACF5
:0901C0002FAD3012033D1A80ED51
:0101C9002213
:0401CA008A388B39AB
:1001CE001203AFAA3AEAD3940040297F10120274A8
:1001DE00AC38AD39CFCDCFCECCCE120042EF540FCE
:1001EE00FEC3940AEE5004243080022437FF12031B
:0401FE00511A80D141
:0102020022D9
:040203008A3D8B3E67
:100207001203AFAA3FEAD394004028EA24FFFDE493
:1002170034FFFC7F027E0012027EAC3DAD3ECFCDA7
:10022700CFCECCCE120042EF54012430FF1203513F
:030237001A80D258
:01023A0022A1
:10035B00AC05AB071203AFAF031203AF7FDF120382
:0E036B0051AF03EC04FD1203AF7F43020351B8
:0300000002009764
:0C009700787FE4F6D8FD7581480200DE99
:10000300BB010CE58229F582E5833AF583E02250B2
:1000130006E92582F8E622BBFE06E92582F8E222FC
:0D002300E58229F582E5833AF583E4932216
:10003000EF8DF0A4A8F0CF8CF0A428CE8DF0A42EE4
:02004000FE229E
:10004200BC000BBE0029EF8DF084FFADF022E4CCA2
:10005200F875F008EF2FFFEE33FEEC33FCEE9DEC6B
:10006200984005FCEE9DFE0FD5F0E9E4CEFD22EDB1
:10007200F8F5F0EE8420D21CFEADF075F008EF2FFB
:10008200FFED33FD4007985006D5F0F222C398FDEC
:050092000FD5F0EA2289
:1000A30002023BE493A3F8E493A34003F68001F236
:1000B30008DFF48029E493A3F85407240CC8C3335E
:1000C300C4540F4420C8834004F456800146F6DF2D
:1000D300E4800B01020408102040809002CEE47EED
:1000E300019360BCA3FF543F30E509541FFEE49322
:1000F300A360010ECF54C025E060A840B8E493A3E9
:10010300FAE493A3F8E493A3C8C582C8CAC583CA13
:10011300F0A3C8C582C8CAC583CADFE9DEE780BECB
:0102F6000007
:00000001FF
